{
  "contractName": "FeeHandlerRouter",
  "abi": [
    {
      "inputs": [
        {
          "internalType": "address",
          "name": "bridgeAddress",
          "type": "address"
        }
      ],
      "stateMutability": "nonpayable",
      "type": "constructor"
    },
    {
      "inputs": [
        {
          "internalType": "uint256",
          "name": "",
          "type": "uint256"
        }
      ],
      "name": "IncorrectFeeSupplied",
      "type": "error"
    },
    {
      "anonymous": false,
      "inputs": [
        {
          "indexed": false,
          "internalType": "address",
          "name": "sender",
          "type": "address"
        },
        {
          "indexed": false,
          "internalType": "uint8",
          "name": "fromDomainID",
          "type": "uint8"
        },
        {
          "indexed": false,
          "internalType": "uint8",
          "name": "destinationDomainID",
          "type": "uint8"
        },
        {
          "indexed": false,
          "internalType": "bytes32",
          "name": "resourceID",
          "type": "bytes32"
        },
        {
          "indexed": false,
          "internalType": "uint256",
          "name": "fee",
          "type": "uint256"
        },
        {
          "indexed": false,
          "internalType": "address",
          "name": "tokenAddress",
          "type": "address"
        }
      ],
      "name": "FeeCollected",
      "type": "event"
    },
    {
      "anonymous": false,
      "inputs": [
        {
          "indexed": false,
          "internalType": "address",
          "name": "tokenAddress",
          "type": "address"
        },
        {
          "indexed": false,
          "internalType": "address",
          "name": "recipient",
          "type": "address"
        },
        {
          "indexed": false,
          "internalType": "uint256",
          "name": "amount",
          "type": "uint256"
        }
      ],
      "name": "FeeDistributed",
      "type": "event"
    },
    {
      "anonymous": false,
      "inputs": [
        {
          "indexed": true,
          "internalType": "bytes32",
          "name": "role",
          "type": "bytes32"
        },
        {
          "indexed": true,
          "internalType": "address",
          "name": "account",
          "type": "address"
        },
        {
          "indexed": true,
          "internalType": "address",
          "name": "sender",
          "type": "address"
        }
      ],
      "name": "RoleGranted",
      "type": "event"
    },
    {
      "anonymous": false,
      "inputs": [
        {
          "indexed": true,
          "internalType": "bytes32",
          "name": "role",
          "type": "bytes32"
        },
        {
          "indexed": true,
          "internalType": "address",
          "name": "account",
          "type": "address"
        },
        {
          "indexed": true,
          "internalType": "address",
          "name": "sender",
          "type": "address"
        }
      ],
      "name": "RoleRevoked",
      "type": "event"
    },
    {
      "anonymous": false,
      "inputs": [
        {
          "indexed": false,
          "internalType": "address",
          "name": "whitelistAddress",
          "type": "address"
        },
        {
          "indexed": false,
          "internalType": "bool",
          "name": "isWhitelisted",
          "type": "bool"
        }
      ],
      "name": "WhitelistChanged",
      "type": "event"
    },
    {
      "inputs": [],
      "name": "DEFAULT_ADMIN_ROLE",
      "outputs": [
        {
          "internalType": "bytes32",
          "name": "",
          "type": "bytes32"
        }
      ],
      "stateMutability": "view",
      "type": "function",
      "constant": true
    },
    {
      "inputs": [],
      "name": "_bridgeAddress",
      "outputs": [
        {
          "internalType": "address",
          "name": "",
          "type": "address"
        }
      ],
      "stateMutability": "view",
      "type": "function",
      "constant": true
    },
    {
      "inputs": [
        {
          "internalType": "uint8",
          "name": "",
          "type": "uint8"
        },
        {
          "internalType": "bytes32",
          "name": "",
          "type": "bytes32"
        }
      ],
      "name": "_domainResourceIDToFeeHandlerAddress",
      "outputs": [
        {
          "internalType": "contract IFeeHandler",
          "name": "",
          "type": "address"
        }
      ],
      "stateMutability": "view",
      "type": "function",
      "constant": true
    },
    {
      "inputs": [
        {
          "internalType": "address",
          "name": "",
          "type": "address"
        }
      ],
      "name": "_whitelist",
      "outputs": [
        {
          "internalType": "bool",
          "name": "",
          "type": "bool"
        }
      ],
      "stateMutability": "view",
      "type": "function",
      "constant": true
    },
    {
      "inputs": [
        {
          "internalType": "bytes32",
          "name": "role",
          "type": "bytes32"
        }
      ],
      "name": "getRoleAdmin",
      "outputs": [
        {
          "internalType": "bytes32",
          "name": "",
          "type": "bytes32"
        }
      ],
      "stateMutability": "view",
      "type": "function",
      "constant": true
    },
    {
      "inputs": [
        {
          "internalType": "bytes32",
          "name": "role",
          "type": "bytes32"
        },
        {
          "internalType": "uint256",
          "name": "index",
          "type": "uint256"
        }
      ],
      "name": "getRoleMember",
      "outputs": [
        {
          "internalType": "address",
          "name": "",
          "type": "address"
        }
      ],
      "stateMutability": "view",
      "type": "function",
      "constant": true
    },
    {
      "inputs": [
        {
          "internalType": "bytes32",
          "name": "role",
          "type": "bytes32"
        }
      ],
      "name": "getRoleMemberCount",
      "outputs": [
        {
          "internalType": "uint256",
          "name": "",
          "type": "uint256"
        }
      ],
      "stateMutability": "view",
      "type": "function",
      "constant": true
    },
    {
      "inputs": [
        {
          "internalType": "bytes32",
          "name": "role",
          "type": "bytes32"
        },
        {
          "internalType": "address",
          "name": "account",
          "type": "address"
        }
      ],
      "name": "getRoleMemberIndex",
      "outputs": [
        {
          "internalType": "uint256",
          "name": "",
          "type": "uint256"
        }
      ],
      "stateMutability": "view",
      "type": "function",
      "constant": true
    },
    {
      "inputs": [
        {
          "internalType": "bytes32",
          "name": "role",
          "type": "bytes32"
        },
        {
          "internalType": "address",
          "name": "account",
          "type": "address"
        }
      ],
      "name": "grantRole",
      "outputs": [],
      "stateMutability": "nonpayable",
      "type": "function"
    },
    {
      "inputs": [
        {
          "internalType": "bytes32",
          "name": "role",
          "type": "bytes32"
        },
        {
          "internalType": "address",
          "name": "account",
          "type": "address"
        }
      ],
      "name": "hasRole",
      "outputs": [
        {
          "internalType": "bool",
          "name": "",
          "type": "bool"
        }
      ],
      "stateMutability": "view",
      "type": "function",
      "constant": true
    },
    {
      "inputs": [
        {
          "internalType": "bytes32",
          "name": "role",
          "type": "bytes32"
        },
        {
          "internalType": "address",
          "name": "account",
          "type": "address"
        }
      ],
      "name": "renounceRole",
      "outputs": [],
      "stateMutability": "nonpayable",
      "type": "function"
    },
    {
      "inputs": [
        {
          "internalType": "bytes32",
          "name": "role",
          "type": "bytes32"
        },
        {
          "internalType": "address",
          "name": "account",
          "type": "address"
        }
      ],
      "name": "revokeRole",
      "outputs": [],
      "stateMutability": "nonpayable",
      "type": "function"
    },
    {
      "inputs": [
        {
          "internalType": "uint8",
          "name": "destinationDomainID",
          "type": "uint8"
        },
        {
          "internalType": "bytes32",
          "name": "resourceID",
          "type": "bytes32"
        },
        {
          "internalType": "contract IFeeHandler",
          "name": "handlerAddress",
          "type": "address"
        }
      ],
      "name": "adminSetResourceHandler",
      "outputs": [],
      "stateMutability": "nonpayable",
      "type": "function"
    },
    {
      "inputs": [
        {
          "internalType": "address",
          "name": "whitelistAddress",
          "type": "address"
        },
        {
          "internalType": "bool",
          "name": "isWhitelisted",
          "type": "bool"
        }
      ],
      "name": "adminSetWhitelist",
      "outputs": [],
      "stateMutability": "nonpayable",
      "type": "function"
    },
    {
      "inputs": [
        {
          "internalType": "address",
          "name": "sender",
          "type": "address"
        },
        {
          "internalType": "uint8",
          "name": "fromDomainID",
          "type": "uint8"
        },
        {
          "internalType": "uint8",
          "name": "destinationDomainID",
          "type": "uint8"
        },
        {
          "internalType": "bytes32",
          "name": "resourceID",
          "type": "bytes32"
        },
        {
          "internalType": "bytes",
          "name": "depositData",
          "type": "bytes"
        },
        {
          "internalType": "bytes",
          "name": "feeData",
          "type": "bytes"
        }
      ],
      "name": "collectFee",
      "outputs": [],
      "stateMutability": "payable",
      "type": "function",
      "payable": true
    },
    {
      "inputs": [
        {
          "internalType": "address",
          "name": "sender",
          "type": "address"
        },
        {
          "internalType": "uint8",
          "name": "fromDomainID",
          "type": "uint8"
        },
        {
          "internalType": "uint8",
          "name": "destinationDomainID",
          "type": "uint8"
        },
        {
          "internalType": "bytes32",
          "name": "resourceID",
          "type": "bytes32"
        },
        {
          "internalType": "bytes",
          "name": "depositData",
          "type": "bytes"
        },
        {
          "internalType": "bytes",
          "name": "feeData",
          "type": "bytes"
        }
      ],
      "name": "calculateFee",
      "outputs": [
        {
          "internalType": "uint256",
          "name": "fee",
          "type": "uint256"
        },
        {
          "internalType": "address",
          "name": "tokenAddress",
          "type": "address"
        }
      ],
      "stateMutability": "view",
      "type": "function",
      "constant": true
    }
  ],
  "bytecode": "0x60a06040523480156200001157600080fd5b506040516200106c3803806200106c83398101604081905262000034916200013e565b6001600160a01b0381166080526200004e60003362000055565b5062000170565b62000061828262000065565b5050565b6000828152602081815260409091206200008a9183906200080e620000cc821b17901c565b15620000615760405133906001600160a01b0383169084907f2f8788117e7eff1d82e926ec794901d17c78024a50270940304540a733656f0d90600090a45050565b6000620000e3836001600160a01b038416620000ec565b90505b92915050565b60008181526001830160205260408120546200013557508154600181810184556000848152602080822090930184905584548482528286019093526040902091909155620000e6565b506000620000e6565b6000602082840312156200015157600080fd5b81516001600160a01b03811681146200016957600080fd5b9392505050565b608051610ed962000193600039600081816101a201526108870152610ed96000f3fe6080604052600436106100f35760003560e01c80639010d07c1161008a578063cfdb63ac11610059578063cfdb63ac146102e2578063d547741f14610312578063ef4f081f14610332578063f1382b261461036f57600080fd5b80639010d07c1461025d57806391d148541461027d578063a217fddf146102ad578063ca15c873146102c257600080fd5b8063318c136e116100c6578063318c136e1461019057806336568abe146101dc5780633d94ebc6146101fc5780634e0df3f61461023d57600080fd5b80631af5fe38146100f8578063248a9ca31461011a578063253070651461015d5780632f2ff15d14610170575b600080fd5b34801561010457600080fd5b50610118610113366004610b8d565b61038f565b005b34801561012657600080fd5b5061014a610135366004610bcd565b60009081526020819052604090206002015490565b6040519081526020015b60405180910390f35b61011861016b366004610c2f565b6103d4565b34801561017c57600080fd5b5061011861018b366004610cdc565b6104c4565b34801561019c57600080fd5b506101c47f000000000000000000000000000000000000000000000000000000000000000081565b6040516001600160a01b039091168152602001610154565b3480156101e857600080fd5b506101186101f7366004610cdc565b610552565b34801561020857600080fd5b506101c4610217366004610d0c565b60016020908152600092835260408084209091529082529020546001600160a01b031681565b34801561024957600080fd5b5061014a610258366004610cdc565b6105cc565b34801561026957600080fd5b506101c4610278366004610d36565b6105f7565b34801561028957600080fd5b5061029d610298366004610cdc565b610616565b6040519015158152602001610154565b3480156102b957600080fd5b5061014a600081565b3480156102ce57600080fd5b5061014a6102dd366004610bcd565b61062e565b3480156102ee57600080fd5b5061029d6102fd366004610d58565b60026020526000908152604090205460ff1681565b34801561031e57600080fd5b5061011861032d366004610cdc565b610645565b34801561033e57600080fd5b5061035261034d366004610c2f565b6106c6565b604080519283526001600160a01b03909116602083015201610154565b34801561037b57600080fd5b5061011861038a366004610d75565b6107a3565b610397610823565b60ff9290921660009081526001602090815260408083209383529290522080546001600160a01b0319166001600160a01b03909216919091179055565b6103dc61087c565b6001600160a01b03881660009081526002602052604090205460ff161561042857341561042357604051634dc2c71160e01b81523460048201526024015b60405180910390fd5b6104ba565b60ff8616600090815260016020908152604080832088845290915290819020549051632530706560e01b81526001600160a01b039091169081906325307065903490610486908d908d908d908d908d908d908d908d90600401610dd1565b6000604051808303818588803b15801561049f57600080fd5b505af11580156104b3573d6000803e3d6000fd5b5050505050505b5050505050505050565b6000828152602081905260409020600201546104e09033610616565b6105445760405162461bcd60e51b815260206004820152602f60248201527f416363657373436f6e74726f6c3a2073656e646572206d75737420626520616e60448201526e0818591b5a5b881d1bc819dc985b9d608a1b606482015260840161041a565b61054e82826108f4565b5050565b6001600160a01b03811633146105c25760405162461bcd60e51b815260206004820152602f60248201527f416363657373436f6e74726f6c3a2063616e206f6e6c792072656e6f756e636560448201526e103937b632b9903337b91039b2b63360891b606482015260840161041a565b61054e828261094d565b6000828152602081815260408083206001600160a01b03851684526001019091529020545b92915050565b600082815260208190526040812061060f90836109a6565b9392505050565b600082815260208190526040812061060f90836109b2565b60008181526020819052604081206105f1906109d4565b6000828152602081905260409020600201546106619033610616565b6105c25760405162461bcd60e51b815260206004820152603060248201527f416363657373436f6e74726f6c3a2073656e646572206d75737420626520616e60448201526f2061646d696e20746f207265766f6b6560801b606482015260840161041a565b6001600160a01b038816600090815260026020526040812054819060ff16156106f457506000905080610796565b60ff881660009081526001602090815260408083208a84529091529081902054905163ef4f081f60e01b81526001600160a01b0390911690819063ef4f081f90610750908e908e908e908e908e908e908e908e90600401610dd1565b6040805180830381865afa15801561076c573d6000803e3d6000fd5b505050506040513d601f19601f820116820180604052508101906107909190610e2d565b92509250505b9850989650505050505050565b6107ab610823565b6001600160a01b038216600081815260026020908152604091829020805460ff19168515159081179091558251938452908301527fb840a1dbd8b09a3dc45161bba92dfb9aba643c0e44c085a447f839d1d02cf13b910160405180910390a15050565b600061060f836001600160a01b0384166109de565b61082e600033610616565b61087a5760405162461bcd60e51b815260206004820152601e60248201527f73656e64657220646f65736e277420686176652061646d696e20726f6c650000604482015260640161041a565b565b336001600160a01b037f0000000000000000000000000000000000000000000000000000000000000000161461087a5760405162461bcd60e51b815260206004820152601e60248201527f73656e646572206d7573742062652062726964676520636f6e74726163740000604482015260640161041a565b600082815260208190526040902061090c908261080e565b1561054e5760405133906001600160a01b0383169084907f2f8788117e7eff1d82e926ec794901d17c78024a50270940304540a733656f0d90600090a45050565b60008281526020819052604090206109659082610a2d565b1561054e5760405133906001600160a01b0383169084907ff6391f5c32d9c69d2a47ea670b442974b53935d1edc7fd64eb21e047a839171b90600090a45050565b600061060f8383610a42565b6001600160a01b0381166000908152600183016020526040812054151561060f565b60006105f1825490565b6000818152600183016020526040812054610a25575081546001818101845560008481526020808220909301849055845484825282860190935260409020919091556105f1565b5060006105f1565b600061060f836001600160a01b038416610a6c565b6000826000018281548110610a5957610a59610e52565b9060005260206000200154905092915050565b60008181526001830160205260408120548015610b55576000610a90600183610e68565b8554909150600090610aa490600190610e68565b9050818114610b09576000866000018281548110610ac457610ac4610e52565b9060005260206000200154905080876000018481548110610ae757610ae7610e52565b6000918252602080832090910192909255918252600188019052604090208390555b8554869080610b1a57610b1a610e8d565b6001900381819060005260206000200160009055905585600101600086815260200190815260200160002060009055600193505050506105f1565b60009150506105f1565b803560ff81168114610b7057600080fd5b919050565b6001600160a01b0381168114610b8a57600080fd5b50565b600080600060608486031215610ba257600080fd5b610bab84610b5f565b9250602084013591506040840135610bc281610b75565b809150509250925092565b600060208284031215610bdf57600080fd5b5035919050565b60008083601f840112610bf857600080fd5b50813567ffffffffffffffff811115610c1057600080fd5b602083019150836020828501011115610c2857600080fd5b9250929050565b60008060008060008060008060c0898b031215610c4b57600080fd5b8835610c5681610b75565b9750610c6460208a01610b5f565b9650610c7260408a01610b5f565b955060608901359450608089013567ffffffffffffffff80821115610c9657600080fd5b610ca28c838d01610be6565b909650945060a08b0135915080821115610cbb57600080fd5b50610cc88b828c01610be6565b999c989b5096995094979396929594505050565b60008060408385031215610cef57600080fd5b823591506020830135610d0181610b75565b809150509250929050565b60008060408385031215610d1f57600080fd5b610d2883610b5f565b946020939093013593505050565b60008060408385031215610d4957600080fd5b50508035926020909101359150565b600060208284031215610d6a57600080fd5b813561060f81610b75565b60008060408385031215610d8857600080fd5b8235610d9381610b75565b915060208301358015158114610d0157600080fd5b81835281816020850137506000828201602090810191909152601f909101601f19169091010190565b60018060a01b038916815260ff8816602082015260ff8716604082015285606082015260c060808201526000610e0b60c083018688610da8565b82810360a0840152610e1e818587610da8565b9b9a5050505050505050505050565b60008060408385031215610e4057600080fd5b825191506020830151610d0181610b75565b634e487b7160e01b600052603260045260246000fd5b600082821015610e8857634e487b7160e01b600052601160045260246000fd5b500390565b634e487b7160e01b600052603160045260246000fdfea26469706673582212202fbe5d3c2c0d99575a010a242773127bcaabeb548bbb159c46a5a9c5b90a678864736f6c634300080b0033",
  "immutableReferences": {
    "10238": [
      {
        "length": 32,
        "start": 418
      },
      {
        "length": 32,
        "start": 2183
      }
    ]
  },
  "source": "// The Licensed Work is (c) 2022 Sygma\n// SPDX-License-Identifier: LGPL-3.0-only\npragma solidity 0.8.11;\n\nimport \"../interfaces/IFeeHandler.sol\";\nimport \"../utils/AccessControl.sol\";\n\n/**\n    @title Handles FeeHandler routing for resources.\n    @author ChainSafe Systems.\n    @notice This contract is intended to be used with the Bridge contract.\n */\ncontract FeeHandlerRouter is IFeeHandler, AccessControl {\n    address public immutable _bridgeAddress;\n\n    // destination domainID => resourceID => feeHandlerAddress\n    mapping (uint8 => mapping(bytes32 => IFeeHandler)) public _domainResourceIDToFeeHandlerAddress;\n    // whitelisted address => is whitelisted\n    mapping(address => bool) public _whitelist;\n\n    event WhitelistChanged(\n        address whitelistAddress,\n        bool isWhitelisted\n    );\n\n    error IncorrectFeeSupplied(uint256);\n\n    modifier onlyBridge() {\n        _onlyBridge();\n        _;\n    }\n\n    function _onlyBridge() private view {\n        require(msg.sender == _bridgeAddress, \"sender must be bridge contract\");\n    }\n\n    modifier onlyAdmin() {\n        _onlyAdmin();\n        _;\n    }\n\n    function _onlyAdmin() private view {\n        require(hasRole(DEFAULT_ADMIN_ROLE, _msgSender()), \"sender doesn't have admin role\");\n    }\n\n    /**\n        @param bridgeAddress Contract address of previously deployed Bridge.\n     */\n    constructor(address bridgeAddress) {\n        _bridgeAddress = bridgeAddress;\n        _setupRole(DEFAULT_ADMIN_ROLE, msg.sender);\n    }\n    /**\n        @notice Maps the {handlerAddress} to {resourceID} to {destinantionDomainID} in {_domainResourceIDToFeeHandlerAddress}.\n        @param destinationDomainID ID of chain FeeHandler contracts will be called.\n        @param resourceID ResourceID for which the corresponding FeeHandler will collect/calcualte fee.\n        @param handlerAddress Address of FeeHandler which will be called for specified resourceID.\n     */\n    function adminSetResourceHandler(uint8 destinationDomainID, bytes32 resourceID, IFeeHandler handlerAddress) external onlyAdmin {\n        _domainResourceIDToFeeHandlerAddress[destinationDomainID][resourceID] = handlerAddress;\n    }\n\n    /**\n        @notice Sets or revokes fee whitelist from an address.\n        @param whitelistAddress Address to be whitelisted.\n        @param isWhitelisted Set to true to exempt an address from paying fees.\n     */\n    function adminSetWhitelist(address whitelistAddress, bool isWhitelisted) external onlyAdmin {\n        _whitelist[whitelistAddress] = isWhitelisted;\n\n        emit WhitelistChanged(whitelistAddress, isWhitelisted);\n    }\n\n\n    /**\n        @notice Initiates collecting fee with corresponding fee handler contract using IFeeHandler interface.\n        @param sender Sender of the deposit.\n        @param fromDomainID ID of the source chain.\n        @param destinationDomainID ID of chain deposit will be bridged to.\n        @param resourceID ResourceID to be used when making deposits.\n        @param depositData Additional data to be passed to specified handler.\n        @param feeData Additional data to be passed to the fee handler.\n     */\n    function collectFee(address sender, uint8 fromDomainID, uint8 destinationDomainID, bytes32 resourceID, bytes calldata depositData, bytes calldata feeData) payable external onlyBridge {\n        if (_whitelist[sender]) {\n            if (msg.value != 0) revert IncorrectFeeSupplied(msg.value);\n            return;\n        }\n\n        IFeeHandler feeHandler = _domainResourceIDToFeeHandlerAddress[destinationDomainID][resourceID];\n        feeHandler.collectFee{value: msg.value}(sender, fromDomainID, destinationDomainID, resourceID, depositData, feeData);\n    }\n\n     /**\n        @notice Initiates calculating fee with corresponding fee handler contract using IFeeHandler interface.\n        @param sender Sender of the deposit.\n        @param fromDomainID ID of the source chain.\n        @param destinationDomainID ID of chain deposit will be bridged to.\n        @param resourceID ResourceID to be used when making deposits.\n        @param depositData Additional data to be passed to specified handler.\n        @param feeData Additional data to be passed to the fee handler.\n        @return fee Returns the fee amount.\n        @return tokenAddress Returns the address of the token to be used for fee.\n     */\n    function calculateFee(address sender, uint8 fromDomainID, uint8 destinationDomainID, bytes32 resourceID, bytes calldata depositData, bytes calldata feeData) external view returns(uint256 fee, address tokenAddress) {\n        if (_whitelist[sender]) {\n            return (0, address(0));\n        }\n\n        IFeeHandler feeHandler = _domainResourceIDToFeeHandlerAddress[destinationDomainID][resourceID];\n        return feeHandler.calculateFee(sender, fromDomainID, destinationDomainID, resourceID, depositData, feeData);\n    }\n}\n",
  "sourcePath": "/home/tcar/chainsafe/sygma-solidity/contracts/handlers/FeeHandlerRouter.sol",
  "compiler": {
    "name": "solc",
    "version": "0.8.11+commit.d7f03943.Emscripten.clang"
  },
  "schemaVersion": "3.4.6",
  "updatedAt": "2024-01-12T15:40:56.686Z",
  "networkType": "ethereum",
  "devdoc": {
    "author": "ChainSafe Systems.",
    "kind": "dev",
    "methods": {
      "adminSetResourceHandler(uint8,bytes32,address)": {
        "params": {
          "destinationDomainID": "ID of chain FeeHandler contracts will be called.",
          "handlerAddress": "Address of FeeHandler which will be called for specified resourceID.",
          "resourceID": "ResourceID for which the corresponding FeeHandler will collect/calcualte fee."
        }
      },
      "adminSetWhitelist(address,bool)": {
        "params": {
          "isWhitelisted": "Set to true to exempt an address from paying fees.",
          "whitelistAddress": "Address to be whitelisted."
        }
      },
      "calculateFee(address,uint8,uint8,bytes32,bytes,bytes)": {
        "params": {
          "depositData": "Additional data to be passed to specified handler.",
          "destinationDomainID": "ID of chain deposit will be bridged to.",
          "feeData": "Additional data to be passed to the fee handler.",
          "fromDomainID": "ID of the source chain.",
          "resourceID": "ResourceID to be used when making deposits.",
          "sender": "Sender of the deposit."
        },
        "returns": {
          "fee": "Returns the fee amount.",
          "tokenAddress": "Returns the address of the token to be used for fee."
        }
      },
      "collectFee(address,uint8,uint8,bytes32,bytes,bytes)": {
        "params": {
          "depositData": "Additional data to be passed to specified handler.",
          "destinationDomainID": "ID of chain deposit will be bridged to.",
          "feeData": "Additional data to be passed to the fee handler.",
          "fromDomainID": "ID of the source chain.",
          "resourceID": "ResourceID to be used when making deposits.",
          "sender": "Sender of the deposit."
        }
      },
      "constructor": {
        "params": {
          "bridgeAddress": "Contract address of previously deployed Bridge."
        }
      },
      "getRoleAdmin(bytes32)": {
        "details": "Returns the admin role that controls `role`. See {grantRole} and {revokeRole}. To change a role's admin, use {_setRoleAdmin}."
      },
      "getRoleMember(bytes32,uint256)": {
        "details": "Returns one of the accounts that have `role`. `index` must be a value between 0 and {getRoleMemberCount}, non-inclusive. Role bearers are not sorted in any particular way, and their ordering may change at any point. WARNING: When using {getRoleMember} and {getRoleMemberCount}, make sure you perform all queries on the same block. See the following https://forum.openzeppelin.com/t/iterating-over-elements-on-enumerableset-in-openzeppelin-contracts/2296[forum post] for more information."
      },
      "getRoleMemberCount(bytes32)": {
        "details": "Returns the number of accounts that have `role`. Can be used together with {getRoleMember} to enumerate all bearers of a role."
      },
      "getRoleMemberIndex(bytes32,address)": {
        "details": "Returns the index of the account that have `role`."
      },
      "grantRole(bytes32,address)": {
        "details": "Grants `role` to `account`. If `account` had not been already granted `role`, emits a {RoleGranted} event. Requirements: - the caller must have ``role``'s admin role."
      },
      "hasRole(bytes32,address)": {
        "details": "Returns `true` if `account` has been granted `role`."
      },
      "renounceRole(bytes32,address)": {
        "details": "Revokes `role` from the calling account. Roles are often managed via {grantRole} and {revokeRole}: this function's purpose is to provide a mechanism for accounts to lose their privileges if they are compromised (such as when a trusted device is misplaced). If the calling account had been granted `role`, emits a {RoleRevoked} event. Requirements: - the caller must be `account`."
      },
      "revokeRole(bytes32,address)": {
        "details": "Revokes `role` from `account`. If `account` had been granted `role`, emits a {RoleRevoked} event. Requirements: - the caller must have ``role``'s admin role."
      }
    },
    "title": "Handles FeeHandler routing for resources.",
    "version": 1
  },
  "userdoc": {
    "events": {
      "FeeCollected(address,uint8,uint8,bytes32,uint256,address)": {
        "notice": "This event is emitted when the fee is collected."
      },
      "FeeDistributed(address,address,uint256)": {
        "notice": "This event is emitted when the fee is distributed to an address."
      }
    },
    "kind": "user",
    "methods": {
      "adminSetResourceHandler(uint8,bytes32,address)": {
        "notice": "Maps the {handlerAddress} to {resourceID} to {destinantionDomainID} in {_domainResourceIDToFeeHandlerAddress}."
      },
      "adminSetWhitelist(address,bool)": {
        "notice": "Sets or revokes fee whitelist from an address."
      },
      "calculateFee(address,uint8,uint8,bytes32,bytes,bytes)": {
        "notice": "Initiates calculating fee with corresponding fee handler contract using IFeeHandler interface."
      },
      "collectFee(address,uint8,uint8,bytes32,bytes,bytes)": {
        "notice": "Initiates collecting fee with corresponding fee handler contract using IFeeHandler interface."
      }
    },
    "notice": "This contract is intended to be used with the Bridge contract.",
    "version": 1
  }
}